:1000000071C0000090C000008EC000008CC00000D5
:100010008AC000000C94FD080C94D80884C000002D
:1000200082C0000080C000007EC000007CC00000D4
:100030007AC0000078C0000076C0000074C00000E4
:1000400072C0000070C000006EC000006CC00000F4
:100050006AC0000068C0000066C0000064C0000004
:1000600062C0000060C000005EC000005CC0000014
:100070005AC0000058C0000056C0000054C0000024
:1000800052C0000050C000004EC000004CC0000034
:100090004AC0000048C0000046C0000044C0000044
:1000A00042C0000040C000003EC000003CC0000054
:1000B0003AC0000038C0000036C0000034C0000064
:1000C00032C0000030C000002EC000002CC0000074
:1000D0002AC0000028C0000026C0000024C0000084
:1000E00022C0000011241FBECFEFD1E2DEBFCDBF82
:1000F00000E00CBF13E0A0E0B2E0ECE4F0E200E0CE
:100100000BBF02C007900D92AE3CB107D9F727E0B4
:10011000AEECB3E001C01D92AE3AB207E1F70E9427
:10012000C7090C9424106CCF109225071092240755
:1001300010920107109200071092190710921807E9
:100140001092A1071092A00710921F0710921E078D
:10015000109217071092160710922107109220078D
:1001600010920307109202071092A9071092A80795
:100170001092290710922807109291071092900769
:10018000109295071092940710921D0710921C0769
:10019000109215071092140782E090E090930502E8
:1001A000809304021092AD071092AC071092990749
:1001B00010929807109207071092060710921B07DB
:1001C00010921A07109227071092260710920F0715
:1001D00010920E0710929F0710929E0710920B0725
:1001E00010920A0781E090E090930302809302024C
:1001F0001092130710921207109209071092080725
:1002000008952F923F924F925F926F927F928F92BA
:100210009F92AF92BF92CF92DF92EF92FF920F9395
:100220001F93CF93DF93CDB7DEB76E970FB6F894D9
:10023000DEBF0FBECDBF78DF0F2EF0EEAF2EF3E0A6
:10024000BF2EF02D20E037E0F501CF0188539F4FFE
:1002500011921192E817F907D9F7FC01281739070D
:10026000A1F784E690E0909317078093160784E047
:1002700090E090931907809318071092D70310927B
:10028000D6031092D9031092D8031092DD03109276
:10029000DC031092DB031092DA0340E050E0B091EF
:1002A000AA07A091AB07C0909C07D0909D0706E0DD
:1002B00012E0E12CF12CF8018E2D9F2D742F652F6B
:1002C000219131912230310521F4B72FA62FC82E6C
:1002D000D92E01968431910599F74F5F5F4F0A5EE1
:1002E0001F4F4431510539F7C0929C07D0929D07AA
:1002F000B093AA07A093AB0784E190E09093250701
:1003000080932407909301078093000700910402D3
:1003100010910502003921E012070CF065C00F5F53
:100320001F4F0F2EF8E1CF2EF2E0DF2EF02D0F2E13
:10033000F0EDEF2EF3E0FF2EF02DA8014150510912
:100340009601490162E1861A9108F901B897D40132
:100350008D919D914D018417950731F5CD016D91DA
:100360007C9111971616170614F00D931C933F01FC
:10037000648975891616170614F0158B048BDC0139
:1003800054966D917C9155971616170624F0559644
:100390001C930E935497D3018D919C91119718162D
:1003A000190614F00D931C933296E217F30779F6B1
:1003B0002A5E3F4F2E153F0521F60F5F1F4F013973
:1003C000B1E01B0709F0B9CF84E190E090932507D5
:1003D00080932407909301078093000780E991E0C0
:1003E00090930502809304024091240750912507C1
:1003F000C0900C07D0900D072091000730910107A5
:100400000091A2071091A3070F2EF6E0EF2EF2E065
:10041000FF2EF02D412C512C812C912C3901F7010C
:10042000882D992DA42D352D61917191623571051D
:1004300039F4082F192F3C01CA2ED32E4A2F532FDF
:1004400001968431910581F7EFEF4E1A5E0AF6E1CD
:10045000EF0EF11C24E14216510409F7930184E1E7
:1004600090E090931F0780931E07509325074093B9
:100470002407C0920C07D0920D077092010760927A
:1004800000070093A2071093A3079093A1078093FE
:10049000A007B301615071098BE0849F4001859FE3
:1004A000900C1124F401E60FF71FEE0FFF1FEA5F17
:1004B000FD4FF080E180E091DC03F091DD038F01DE
:1004C000000F111F00521C4FD8014D935C938F01F8
:1004D000000F111F0E511C4FD8016D937C936301C7
:1004E000BFEFCB1ADB0AD401AC0DBD1DAA0FBB1F99
:1004F0008D010A5F1D4FD801BC91BB83D8011196B5
:10050000BC91BD830091DA031091DB03D801AA0FDF
:10051000BB1FA855BB4F4D935C93D801AA0FBB1FBF
:10052000A655BB4FCD92DC92DA011196BC8BAB8BFA
:100530003D01869DD001879DB00D1124A20FB31FF0
:100540004D01880C991CD401AA5FBD4F4D01BC918F
:10055000BF83D4011196BC91B9836090D803709089
:10056000D903D301AA0FBB1FA059BA4F8B889C880F
:100570008D929C92D301AA0FBB1FAE58BA4F2D93F8
:100580003C931A0191E0291A3108829DD001839D84
:10059000B00D1124A20FB31FAA0FBB1FCD018A5F9C
:1005A0009D4FDC010D90BC91A02DB88FAF8B80903A
:1005B000D6039090D703C401880F991F885C994F88
:1005C000DC012D923C92C401880F991F865C994FE3
:1005D000DC012D933C938091020290910302FD86F1
:1005E000EE86F88BEF877C8F6B8FF98AEA8A5A87C1
:1005F0004987BB81BB87ED81EC872801BD8BEE8BE2
:100600007A014B895C895C834B835F815D8369815F
:100610006E835B8B6C8BEF89F88DF887EF834BE0F3
:1006200050E0BA8EA98EEB8DFC8D3E8F2D8F11C4BC
:100630006D857E85633071050CF416C1DF0111975D
:10064000BA83A983A985BA854A9FB0014B9F700DD3
:10065000112409811A81060F171F000F111FD801DD
:10066000AA5FBD4FAD90BC906E0F7F1F660F771FC6
:100670006A5F7D4FDB016D917C918B010150110907
:10068000A016B10671F5E989FA89EA0DFB1DFA8B0E
:10069000E98B6F8578896E5F7F4FFB01EE0FFF1F3F
:1006A000E052FC4F89859A8591838083EF85F88994
:1006B000EE0FFF1FEA51FC4FA981BA81B183A083DD
:1006C000F1E0E0E0B2E0AB16B10411F4F0E0E52FA8
:1006D0008F2F9E2F788B6F87E981FA81BE86AD863A
:1006E000C3C05F016FEFA61AB60A69857A85469F77
:1006F000D001479FB00D1124BD016A0D7B1D660F0F
:10070000771F6A5F7D4FDB016D917C91061717079C
:1007100051F5E989FA89E00FF11FFA8BE98B6F85B2
:1007200078896E5F7F4FFB01EE0FFF1FE052FC4F99
:1007300089859A8591838083EF85F889EE0FFF1F65
:10074000EA51FC4FB182A082F1E0E0E002301105F5
:1007500011F4F0E0E52F8F2F9E2F788B6F87F50136
:100760001E870D8781C0A984BA84AFEFAA1ABA0A7E
:100770004A9DB0014B9D700D11246E0F7F1F660FB7
:10078000771F6A5F7D4FDB016D917C91061717071C
:1007900059F569897A89600F711F7A8B698B6F852A
:1007A00078896E5F7F4FCB01880F991F80529C4FD5
:1007B000DC01AD92BC928F859889880F991F8A5170
:1007C0009C4FDC01ED93FC93A1E0B0E002301105F9
:1007D00011F4A0E0B52F8A2F9B2F788B6F87BA86F4
:1007E000A9861E870D8740C0A984BA84B1E0AB1AE0
:1007F000B1084A9DB0014B9D700D11246E0F7F1FF3
:10080000660F771F6A5F7D4FDB016D917C91061744
:10081000170751F569897A89600F711F7A8B698B87
:100820006F8578896E5F7F4FCB01880F991F80524B
:100830009C4FDC01AD92BC928F859889880F991FDF
:100840008A519C4FDC01ED93FC93A1E0B0E00230B3
:10085000110511F4A0E0B52F8A2F9B2F788B6F879D
:10086000BA86A9861E870D876B857C8563307105E6
:100870000CF4EAC0D6011196BA83A9834E9DB0014B
:100880004F9D700D11248D01060F171F000F111FB2
:10089000D801AA5FBD4FAD90BC906C0D7D1D660F59
:1008A000771F6A5F7D4FDB016D917C918B01015059
:1008B0001109A016B10639F5CD88DE88CA0CDB1CFB
:1008C000DE8ACD8AB2016E5F7F4FD201AA0FBB1FB5
:1008D000A455BB4FED92FC92D201AA0FBB1F8D0114
:1008E00002551B4FC980DA80D801CD92DC92A2E07C
:1008F000AA16B10411F480E0952F2B01C980DA808B
:10090000BC86AB86A1C05601B1E0AB1AB1084E9DC2
:10091000B0014F9D700D11246A0D7B1D660F771F6E
:100920006A5F7D4FDB016D917C910617170709F512
:10093000CD88DE88C00ED11EDE8ACD8AB2016E5F00
:100940007F4FD201AA0FBB1FA455BB4FED92FC9263
:10095000D201AA0FBB1FA255BB4FAD92BC92023071
:10096000110511F480E0952F2B0165011C870B8781
:100970006BC057016FEFA61AB60A4A9DB0014B9D96
:10098000700D11246C0D7D1D660F771F6A5F7D4F02
:10099000DB016D917C910617170709F56D897E893A
:1009A000600F711F7E8B6D8BB2016E5F7F4FD20126
:1009B000AA0FBB1FA455BB4FAD92BC92D201AA0F88
:1009C000BB1FA255BB4FCD92DC920230110511F432
:1009D00080E0952F2B0175011C870B8735C05701CF
:1009E00071E0A71AB1084A9DB0014B9D700D11240A
:1009F0006C0D7D1D660F771F6A5F7D4FDB016D916A
:100A00007C910617170701F56D897E89600F711FAC
:100A10007E8B6D8BB2016E5F7F4FD201AA0FBB1F21
:100A2000A455BB4FAD92BC92D201AA0FBB1FA255D9
:100A3000BB4FCD92DC920230110511F480E0952F6E
:100A40002B0175011C870B87AD81BE8113970CF4B8
:100A50000FC16D8D7E8D6F5F7F4F7A836983AB8110
:100A6000BC814A9FB0014B9F700D112409811A81EE
:100A7000060F171F000F111FD801AA5FBD4FAD90C1
:100A8000BC90AD8DBE8D6A0F7B1F660F771F6A5FAE
:100A90007D4FDB016D917C918B0101501109A016F6
:100AA000B10679F56B897C896A0D7B1D7C8B6B8B1C
:100AB000D3011296BE83AD83D301AA0FBB1F8D0154
:100AC0000C581A4F6B817C81D8016D937C93D301B4
:100AD000AA0FBB1F8D010A581A4F69807A80D8016E
:100AE0006D927C9262E0A616B10411F480E0952F1D
:100AF0006D807E80BE82AD82A981BA81BE8FAD8FAE
:100B0000B7C0AB80BC80BFEFAB1ABB0A4A9DB00137
:100B10004B9D700D1124AD8DBE8D6A0F7B1F660F2E
:100B2000771F6A5F7D4FDB016D917C910617170778
:100B300021F56B897C89600F711F7C8B6B8BB301F6
:100B40006E5F7F4FD301AA0FBB1FAC58BA4FAD9257
:100B5000BC92D301AA0FBB1FAA58BA4F6D8C7E8CD2
:100B60006D927C920230110511F480E0952FBC82C9
:100B7000AB823B011E830D837BC0AB80BC8061E0F8
:100B8000A61AB1084A9DB0014B9D700D1124AD8D80
:100B9000BE8D6A0F7B1F660F771F6A5F7D4FDB017B
:100BA0006D917C910617170721F56B897C89600F81
:100BB000711F7C8B6B8BB3016E5F7F4FD301AA0FCC
:100BC000BB1FAC58BA4FAD92BC92D301AA0FBB1F4A
:100BD000AA58BA4F6D8C7E8C6D927C9202301105B2
:100BE00011F480E0952FBC82AB823B011E830D8304
:100BF0003FC0AD8CBE8C61E0A61AB1086B817C81D0
:100C0000469FD001479FB00D1124BD016A0D7B1D89
:100C1000660F771F6A5F7D4FDB016D917C91061730
:100C2000170731F56B897C89600F711F7C8B6B8B8B
:100C3000D3011296BE83AD83B301660F771FDB012C
:100C4000AC58BA4F6B817C816D937C93D301AA0F12
:100C5000BB1FAA58BA4FAD92BC920230110511F4D5
:100C600080E0952F6D807E801E830D83BE8EAD8EBD
:100C7000AF81B88513970CF4ECC0B9016F5F7F4F5B
:100C80007A836983429DB001439D700D11240981CF
:100C90001A81060F171F000F111FD801AA5FBD4F41
:100CA000AD90BC90620F731F660F771F6A5F7D4F18
:100CB000DB016D917C918B0101501109A016B106E9
:100CC00041F52F89388D2A0D3B1D388F2F8B9401CC
:100CD0002E5F3F4FB401660F771F645C794FDB01D5
:100CE0002D923C92B401660F771F8B01025C194F65
:100CF00089809A80D8018D929C9262E0A616B104F8
:100D000011F480E0952F4901B886AF8229813A819C
:100D1000A0C0510171E0A71AB1084A9DB0014B9DD6
:100D2000700D1124620F731F660F771F6A5F7D4F6E
:100D3000DB016D917C910617170709F56F89788D96
:100D4000600F711F788F6F8BB4016E5F7F4FD4017E
:100D5000AA0FBB1FA45CB94FAD92BC92D401AA0FDD
:100D6000BB1FA25CB94F2D933C930230110511F4C7
:100D700080E0952F15014B0118870F836AC0510140
:100D80007FEFA71AB70A4A9DB0014B9D700D112441
:100D9000620F731F660F771F6A5F7D4FDB016D91D6
:100DA0007C910617170709F56F89788D600F711F01
:100DB000788F6F8BB4016E5F7F4FD401AA0FBB1F7A
:100DC000A45CB94FAD92BC92D401AA0FBB1FA25C28
:100DD000B94F2D933C930230110511F480E0952F0B
:100DE00015014B0118870F8334C0B9016150710997
:100DF000429DD001439DB00D1124A60FB71FAA0F2D
:100E0000BB1FAA5FBD4F0D90BC91A02D0A171B07F9
:100E100001F5AF89B88DA00FB11FB88FAF8B9401CA
:100E20002E5F3F4FD401AA0FBB1FA45CB94F2D9278
:100E30003C92D401AA0FBB1FA25CB94F6D937C9367
:100E40000230110511F480E0952F490118870F83B6
:100E50009B018130910509F4EBCBA98CBA8CFC8FF6
:100E6000EB8FAD8DBE8D9093030280930202309381
:100E70000B0720930A07EF89F88DF0931507E0938D
:100E800014072F81388530932907209328079092E3
:100E9000D7038092D60330921B0720921A07B09393
:100EA0009F07A0939E074B895C8950931D07409331
:100EB0001C076D817E817093A9076093A8077092CB
:100EC000D9036092D8038B819C819093070780930C
:100ED0000607AD85BE85B0932107A0932007E9855D
:100EE000FA85F093AD07E093AC076B8C7C8C709225
:100EF00027076092260789889A88909291078092A6
:100F000090072F8538893093DD032093DC034B85D0
:100F10005C855093030740930207F0929907E09293
:100F20009807D0920F07C0920E076D897E89709343
:100F30009507609394075092DB034092DA03109276
:100F40001907109218074091AA075091AB07E0913A
:100F50009C07F0919D07E0909607F090970760E05E
:100F600070E0D5019D0128533F4F062F172F8D911B
:100F70009C9111978417950749F412968D919C9135
:100F800013978E179F0711F4E02EF12E1496A217D7
:100F9000B30769F76F5F7F4FD9016430710511F7AF
:100FA00084E690E09093170780931607E0929607E7
:100FB000F092970784E090E09093190780931807C8
:100FC0006E960FB6F894DEBF0FBECDBFDF91CF9106
:100FD0001F910F91FF90EF90DF90CF90BF90AF9057
:100FE0009F908F907F906F905F904F903F902F9049
:100FF000089587B1876F87B988B1807888B90895D7
:1010000086E69EE00197F1F700004098419880E362
:1010100088B9429AEFEFF7E43197F1F700C000008A
:101020004298E6E6FEE03197F1F7000040984198DB
:1010300088B9429AEFEFF7E43197F1F700C000006A
:101040004298E6E6FEE03197F1F7000040984198BB
:1010500088B9429A8FEF97E40197F1F700C000003A
:101060004298E6E6FEE03197F1F70000409841989B
:1010700080E288B9429A86E69EE00197F1F7000087
:101080004298089598B19F7098B998B1282F207F01
:10109000922B98B940984198429AEFEFF7E4319734
:1010A000F1F700C00000429898B19F7098B998B1CC
:1010B0008295807F892B88B940984198429A8FEF1A
:1010C00097E40197F1F700C000004298089586E682
:1010D0009EE00197F1F7000088E2D4DF81E0D2DFE3
:1010E00086E0D0DF8EE0CEDF80E8CCCF089598B1E7
:1010F0009F7098B998B1282F207F922B98B9409A69
:101100004198429AEFEFF7E43197F1F700C0000001
:10111000429898B19F7098B998B18295807F892B39
:1011200088B9409A4198429A8FEF97E40197F1F776
:1011300000C0000042980895CF93DF93EC018881AE
:10114000882329F02196D3DF89918111FCCFDF918B
:10115000CF91089581B18F6081B982B1807F82B9CA
:10116000EAE0F1E0808188618083EBE0F1E080815A
:101170008861808308956C98749A08956D98759A23
:101180000895E8DFF8DFFADF34CF0895F894EAE64F
:10119000F0E0808182608083EC9A78940895F894DE
:1011A000EAE6F0E0808188608083ED9A7894089583
:1011B0001F920F920FB60F9211248F939F93AF93AC
:1011C000BF938091CE039091CF03A091D003B091B3
:1011D000D1030196A11DB11D8093CE039093CF033F
:1011E000A093D003B093D103BF91AF919F918F9102
:1011F0000F900FBE0F901F9018951F920F920FB671
:101200000F9211248F939F93AF93BF938091D2033A
:101210009091D303A091D403B091D5030196A11D61
:10122000B11D8093D2039093D303A093D403B093C2
:10123000D503BF91AF919F918F910F900FBE0F90EB
:101240001F90189592B1907F8F70982B92B9089546
:1012500086E0F8CF089585E0F5CF08958AE0F2CFD3
:10126000089580E0EFCF0895CF92DF92EF92FF9242
:101270000F931F93BC0180E090E058D628E431EE34
:1012800042E850E4BFD526D6AB0160E070E0109292
:10129000CE031092CF031092D0031092D10310927C
:1012A000D2031092D3031092D4031092D50391E08D
:1012B000E0E0C090CE03D090CF03E090D003F09058
:1012C000D1030091D2031091D3032091D403309124
:1012D000D503892F041715072607370708F48E2F23
:1012E000811109C0892FC416D506E606F70608F451
:1012F0008E2F8823F1F2B5DF1F910F91FF90EF90B1
:10130000DF90CF900895BC0180E090E00FD625EEED
:1013100030ED4AEA50E476D5DDD5AB01BC01109240
:10132000CE031092CF031092D0031092D10380917C
:10133000CE039091CF03A091D003B091D103481771
:1013400059076A077B0798F78CCF0895CF93DF93EF
:10135000EC017EDFCE01D7DFDF91CF910895CF93EF
:10136000DF93EC0178DFCE017FDFDF91CF9108952D
:10137000CF93DF93EC0172DFCE0176DFDF91CF9167
:101380000895F894FEDE02DF0ADF78940895CF9284
:10139000DF92EF92FF920F931F93CF93DF93F1DFD2
:1013A0000E9401012DDE93DE82E86CDE88EF92E080
:1013B000C3DE80EC67DE84E093E0BEDE81E062DEC7
:1013C0000F2EF4E6DF2EF02D0F2EFBE0CF2EF02DAA
:1013D00002E510E0C1E0D0E00F2EFEE0EF2EFF248A
:1013E000F394F02DC9C4209196073091970780910E
:1013F000080790910907D29EF001D39EF00D1124A9
:10140000E80FF91FEE0FFF1FE052FC4F6081718162
:1014100040910C0750910D07FA0131966E177F0726
:1014200009F0EEC08091DE039091DF030097A9F5EB
:1014300081E028DE80E826DE86E393E07DDE80E939
:1014400091E084DF20910C0730910D078091A20775
:101450009091A307C29EF001C39EF00D1124E80FE6
:10146000F91FEE0FFF1FEA5FFD4FD183C0832F5F8F
:101470003F4FC29EF001C39EF00D1124E80FF91FEB
:10148000EE0FFF1FEA5FFD4F118300831092DF0311
:101490001092DE030E94010178C38A359105C1F5DF
:1014A00081E0F0DD80E8EEDD85E193E045DE8AE570
:1014B00090E05EDF80E991E049DF20910C073091F8
:1014C0000D078091A2079091A307C29EF001C39ED1
:1014D000F00D1124E80FF91FEE0FFF1FEA5FFD4F1B
:1014E000D183C0832F5F3F4FC29EF001C39EF00D9A
:1014F0001124E80FF91FEE0FFF1FEA5FFD4F118364
:1015000000831092DF031092DE030E9401013DC3AD
:101510008E3021E09207C1F581E0B4DD80E8B2DDD4
:1015200084E293E009DE8AE590E019DF80E991E04A
:101530000DDF20910C0730910D078091A20790914B
:10154000A307C29EF001C39EF00D1124E80FF91FFE
:10155000EE0FFF1FEA5FFD4FD183C0832F5F3F4F28
:10156000C29EF001C39EF00D1124E80FF91FEE0F8B
:10157000FF1FEA5FFD4F118300831092DF0310927B
:10158000DE030E94010101C3843B910509F0FDC205
:1015900081E078DD80E876DD82E393E0CDDD84EBE9
:1015A00090E0E6DE80E991E0D1DE20910C073091F9
:1015B0000D078091A2079091A307C29EF001C39EE0
:1015C000F00D1124E80FF91FEE0FFF1FEA5FFD4F2A
:1015D000D183C0832F5F3F4FC29EF001C39EF00DA9
:1015E0001124E80FF91FEE0FFF1FEA5FFD4F118373
:1015F00000831092DF031092DE030E940101C5C236
:10160000415051096417750709F0F9C08091DE0354
:101610009091DF03009709F03AC081E033DD80E864
:1016200031DD8FE393E088DD84EB90E0A1DE80E99B
:1016300091E08CDE20910C0730910D078091A2077C
:101640009091A307C29EF001C39EF00D1124E80FF4
:10165000F91FEE0FFF1FEA5FFD4FD183C0832150BA
:101660003109C29EF001C39EF00D1124E80FF91F4D
:10167000EE0FFF1FEA5FFD4F1183008384EB90E0C4
:101680009093DF038093DE030E9401017EC28A35BE
:10169000910509F03AC081E0F5DC80E8F3DC8CE4E8
:1016A00093E04ADD8AE590E05ADE80E991E04EDE83
:1016B00020910C0730910D078091A2079091A3070C
:1016C000C29EF001C39EF00D1124E80FF91FEE0F2A
:1016D000FF1FEA5FFD4FD183C08321503109C29EB5
:1016E000F001C39EF00D1124E80FF91FEE0FFF1F4C
:1016F000EA5FFD4F1183008384EB90E09093DF035A
:101700008093DE030E94010140C28E3061E09607A3
:1017100009F03AC081E0B6DC80E8B4DC8AE593E009
:101720000BDD8AE590E024DE80E991E00FDE209178
:101730000C0730910D078091A2079091A307C29EDC
:10174000F001C39EF00D1124E80FF91FEE0FFF1FEB
:10175000EA5FFD4FD183C08321503109C29EF00161
:10176000C39EF00D1124E80FF91FEE0FFF1FEA5F73
:10177000FD4F1183008384EB90E09093DF0380930F
:10178000DE030E94010101C2843B910509F0FDC105
:1017900081E078DC80E876DC82E493E0CDDC80E9EF
:1017A00091E0D4DD20910C0730910D078091A207C4
:1017B0009091A307C29EF001C39EF00D1124E80F83
:1017C000F91FEE0FFF1FEA5FFD4FD183C083215049
:1017D0003109C29EF001C39EF00D1124E80FF91FDC
:1017E000EE0FFF1FEA5FFD4F1183008384EB90E053
:1017F0009093DF038093DE030E940101C6C1D29E55
:10180000F001D39EF00D1124E80FF91FEE0FFF1F1A
:10181000EE51FC4F208131818091A2079091A30766
:10182000AC014F5F5F4F2417350709F0D9C0809195
:10183000DE039091DF03009799F581E023DC80E8D7
:1018400021DC89E693E078DC8AE590E088DD80E9B8
:1018500091E07CDD40910C0750910D078091A2072B
:101860009091A307C49E9001C59E300D1124820F54
:10187000931FFC01EE0FFF1FE85FFD4F11830083F4
:10188000880F991FFC01EA5FFD4FD183C0838AE571
:1018900090E09093DF038093DE030E94010175C105
:1018A0008A35910581F581E0EDDB80E8EBDB89E8A5
:1018B00093E042DC80E991E049DD40910C075091D2
:1018C0000D078091A2079091A307C49E9001C59E29
:1018D000300D1124820F931FFC01EE0FFF1FE85FF4
:1018E000FD4F11830083880F991FFC01EA5FFD4FB4
:1018F000D183C0838AE590E09093DF038093DE0379
:101900000E94010142C1843B910599F581E0BADB57
:1019100080E8B8DB87E793E00FDC8AE590E028DD1C
:1019200080E991E013DD40910C0750910D07809103
:10193000A2079091A307C49E9001C59E300D11246B
:10194000820F931FFC01EE0FFF1FE85FFD4F118315
:101950000083880F991FFC01EA5FFD4FD183C0838C
:101960008AE590E09093DF038093DE030E940101FB
:101970000CC18E30914009F008C181E083DB80E822
:1019800081DB86E893E0D8DB84EB90E0F1DC80E952
:1019900091E0DCDC40910C0750910D078091A2078B
:1019A0009091A307C49E9001C59E300D1124820F13
:1019B000931FFC01EE0FFF1FE85FFD4F11830083B3
:1019C000880F991FFC01EA5FFD4FD183C0838AE530
:1019D00090E09093DF038093DE030E940101D5C065
:1019E00001972817390709F0D0C08091DE03909144
:1019F000DF03009789F581E045DB80E843DB83E97D
:101A000093E09ADB8AE590E0B3DC80E991E09EDC2C
:101A100040910C0750910D078091A2079091A30768
:101A2000C49E9001C59E300D1124820F931FFC01AE
:101A3000EE0FFF1FEC5FFD4F11830083880F991F8E
:101A4000FC01EA5FFD4FD183C083F092DF03E09297
:101A5000DE030E94010199C08E3061E0960771F5A6
:101A600081E010DB80E80EDB84EB93E065DB80E94E
:101A700091E06CDC40910C0750910D078091A2071A
:101A80009091A307C49E9001C59E300D1124820F32
:101A9000931FFC01EE0FFF1FEC5FFD4F11830083CE
:101AA000880F991FFC01EA5FFD4FD183C083F0923C
:101AB000DF03E092DE030E94010167C0843B9105D1
:101AC00089F581E0DFDA80E8DDDA82EA93E034DB71
:101AD0008AE590E044DC80E991E038DC40910C0735
:101AE00050910D078091A2079091A307C49E900189
:101AF000C59E300D1124820F931FFC01EE0FFF1FB6
:101B0000EC5FFD4F11830083880F991FFC01EA5F92
:101B1000FD4FD183C083F092DF03E092DE030E9489
:101B2000010133C08A35910581F581E0ABDA80E8A7
:101B3000A9DA80EB93E000DB84EB90E019DC80E92C
:101B400091E004DC40910C0750910D078091A207B1
:101B50009091A307C49E9001C59E300D1124820F61
:101B6000931FFC01EE0FFF1FEC5FFD4F11830083FD
:101B7000880F991FFC01EA5FFD4FD183C083F0926B
:101B8000DF03E092DE030E9401012091960730916D
:101B900097078091080790910907D29EF001D39E84
:101BA000F00D1124E80FF91FEE0FFF1FEC51FC4F51
:101BB000608171814091AA075091AB076417750746
:101BC00009F0DAC0D29EF001D39EF00D1124E80F87
:101BD000F91FEE0FFF1FEA51FC4F208131818091E8
:101BE0009C0790919D072817390709F0C5C081E02F
:101BF00049DA80E847DA8DEB93E09EDA8091A2071C
:101C00009091A3074091960750919707209108075C
:101C100030910907D49EF001D59EF00D1124E20FFA
:101C2000F31FEE0FFF1FEE51FC4F60817181FC012D
:101C30003196E617F707F9F4E091DE03F091DF0340
:101C4000309739F48AE590E08ADB80E991E07EDB29
:101C50008FC0E43BF10539F48AE590E089DB80E947
:101C600091E074DB85C0EA35F10509F092C080E9A6
:101C700091E06CDB7DC0019768177907F9F48091DA
:101C8000DE039091DF03009739F48AE590E070DB82
:101C900080E991E05BDB6CC0843B910539F48AE517
:101CA00090E05DDB80E991E051DB62C08E309140D5
:101CB00009F07AC080E991E049DB5AC080910C07B5
:101CC00090910D07D49EF001D59EF00D1124E20FE6
:101CD000F31FEE0FFF1FE052FC4F20813181AC015A
:101CE0004F5F5F4F4217530701F54091DE0350915C
:101CF000DF034E3061E0560739F48AE590E02FDBD0
:101D000080E991E023DB34C04A35510539F48AE596
:101D100090E02EDB80E991E019DB2AC0452B09F029
:101D200061C080E991E012DB23C0019728173907D1
:101D3000F9F48091DE039091DF038A35910539F43F
:101D40008AE590E00CDB80E991E000DB11C08E3089
:101D500021E0920739F48AE590E00ADB80E991E01E
:101D6000F5DA06C0843B910519F480E991E0EEDADA
:101D700010920102109200028091000290910102E3
:101D8000892B09F030CB33C08091DE039091DF03C3
:101D900083CF01976817790709F090CFF5CF40916D
:101DA000DE035091DF03B0CF80910C0790910D07B7
:101DB000D49EF001D59EF00D1124E20FF31FEE0F1B
:101DC000FF1FE052FC4F20813181AC014F5F5F4F1C
:101DD0004217530709F0A9CFE2CF8091DE0390911B
:101DE000DF03B5CF01972817390711F6F6CF80E04A
:101DF00090E0DF91CF911F910F91FF90EF90DF90D6
:101E0000CF9008950CD0E6C0DED040F0D5D030F0B1
:101E100021F45F3F19F0C7C0511110C1CAC0EBD007
:101E200098F39923C9F35523B1F3951B550BBB27A1
:101E3000AA2762177307840738F09F5F5F4F220F4E
:101E4000331F441FAA1FA9F333D00E2E3AF0E0E847
:101E500030D091505040E695001CCAF729D0FE2F93
:101E600027D0660F771F881FBB1F26173707480725
:101E7000AB07B0E809F0BB0B802DBF01FF279358DB
:101E80005F4F2AF09E3F510568F08DC0D7C05F3F7D
:101E9000ECF3983EDCF3869577956795B795F795C3
:101EA0009F5FC9F7880F911D9695879597F90895BB
:101EB000E1E0660F771F881FBB1F62177307840757
:101EC000BA0720F0621B730B840BBA0BEE1F88F766
:101ED000E095089598D088F09F5790F0B92F9927F2
:101EE000B751A0F0D1F0660F771F881F991F1AF025
:101EF000BA95C9F712C0B13081F09FD0B1E0089512
:101F00009CC0672F782F8827B85F39F0B93FCCF392
:101F1000869577956795B395D9F73EF4909580951A
:101F2000709561957F4F8F4F9F4F0895E89409C03A
:101F300097FB3EF490958095709561957F4F8F4FFC
:101F40009F4F9923A9F0F92F96E9BB279395F69512
:101F5000879577956795B795F111F8CFFAF4BB0F90
:101F600011F460FF1BC06F5F7F4F8F4F9F4F16C0F4
:101F7000882311F096E911C0772321F09EE8872F7E
:101F8000762F05C0662371F096E8862F70E060E03A
:101F90002AF09A95660F771F881FDAF7880F9695B3
:101FA000879597F9089597F99F6780E870E060E05A
:101FB00008959FEF80EC089500240A9416161706E2
:101FC00018060906089500240A941216130614062A
:101FD00005060895092E0394000C11F4882352F08D
:101FE000BB0F40F4BF2B11F460FF04C06F5F7F4F45
:101FF0008F4F9F4F089557FD9058440F551F59F02C
:102000005F3F71F04795880F97FB991F61F09F3FE5
:1020100079F087950895121613061406551FF2CF0E
:102020004695F1DF08C0161617061806991FF1CF5E
:1020300086957105610508940895E894BB27662785
:0C2040007727CB0197F90895F894FFCFA3
:10204C00010001000200010001000100010001007B
:10205C00010001000100010001000100010002006B
:10206C00000001000100010001000100010001005D
:10207C000100010001000000000000000000000051
:10208C00010001000100010001000100000000003E
:10209C00000000000000010001000100010001002F
:1020AC00010000000000000001000100010001001F
:1020BC00010001000100010000000000000001000F
:1020CC0001000100010001000100010001000000FD
:1020DC0000000000010001000100010001000100EE
:1020EC0001000100000000000000010001000100DF
:1020FC0001000100010001000000000000000000D0
:10210C0000000000010001000100010001000100BD
:10211C00010001000000000052000100010001005C
:10212C00010001000100010001000100010001009B
:10213C00010001000100010046495245204249526C
:10214C00442035004E455820524F424F544943537A
:10215C0020494E4400726967687420666F7277611B
:10216C00726431006C65667420666F72776172649C
:10217C0031006C383020666F727761726431006C9C
:10218C00383020666F727761726432006C656674E9
:10219C0020666F72776172643200726967687420AE
:1021AC00666F727761726432006C65667420666F5C
:1021BC0072776172643300726967687420666F723B
:1021CC007761726433006C383020666F727761729D
:1021DC00643300726967687420666F727761726429
:1021EC0034006C65667420666F72776172643400BB
:1021FC006C383020666F727761726434007265617E
:0E220C006368656420617420676F616C000078
:00000001FF
